:100000000C9434040C9451040C9451040C94510439
:100010000C9451040C9451040C9451040C9451040C
:100020000C9451040C9451040C9451040C945104FC
:100030000C9451040C9451040C9451040C945104EC
:100040000C9453040C9451040C9451040C945104DA
:100050000C9451040C9451040C9451040C945104CC
:100060000C9451040C9451040000000000000000A6
:100070007E81A581BD99423C7EFFDBFFC3E77E3CCC
:10008000367F7F7F3E1C0800081C3E7F3E1C080018
:100090001C3E1C7F7F6B081C08081C3E7F3E081C12
:1000A0000000183C3C180000FFFFE7C3C3E7FFFF58
:1000B000003C664242663C00FFC399BDBD99C3FF48
:1000C0000F070F7DCCCCCC783C6666663C187E185A
:1000D000080C0E0A0A387830003E2222266EE440D0
:1000E00018DB3CE7E73CDB182030383C3830200098
:1000F000040C1C3C1C0C0400183C7E18187E3C1898
:1001000066666666660066007FDBDB7B1B1B1B008A
:100110003C603C663C063C00000000007E7E000027
:10012000183C7E187E3C18FF183C7E1818181800E2
:10013000181818187E3C1800000C067F060C0000EA
:100140000018307F3018000000006060607E000002
:10015000002466FF6624000000081C3E7F000000AB
:1001600000007F3E1C0800000000000000000000AE
:10017000183C3C1818001800363636000000000005
:1001800036367F367F363600183E603C067C1800D7
:1001900060660C18306606003866663F66663B008F
:1001A0001C183000000000000C18303030180C0013
:1001B00030180C0C0C18300000663CFF3C66000048
:1001C0000018187E181800000000000000181830F1
:1001D0000000007E00000000000000000018180071
:1001E00000060C18306000003C666E7E76663C00AF
:1001F0001838181818187E003C66061C30667E00F9
:100200003C66061C06663C000E1E36667F060F0026
:100210007E60607C06663C001C30607C66663C004C
:100220007E66060C181818003C66663C66663C0044
:100230003C66663E060C38000000181800181800CE
:1002400000001818001818300C18306030180C0016
:1002500000007E007E00000030180C060C183000F4
:100260003C66060C180018003C666E6A6E603C0026
:100270003C66667E666666007C66667C66667C00BA
:100280003C66606060663C00786C6666666C780010
:100290007E60607C60607E007E60607C606060008C
:1002A0003C66606E66663C006666667E66666600F4
:1002B0003C18181818183C000E06060666663C0026
:1002C00066666C786C6666006060606060607E0088
:1002D00063777F7F6B63630066767E7E6E66660003
:1002E0003C66666666663C007C66667C60606000B4
:1002F0003C6666666E3C0E007C66667C6C666600DC
:100300003C66603C06663C007E18181818181800F9
:100310006666666666663C0066666666663C1800EB
:100320006363636B7F77630066663C183C666600B8
:100330006666663C181818007E060C1830607E0051
:100340003E30303030303E00006030180C06000087
:100350003E06060606063E00081C36630000000046
:10036000000000000000FF0038180C000000000032
:1003700000003C063E663E0060607C6666667C006F
:1003800000003C6660663C0006063E6666663E000F
:1003900000003C667E603C001E30307C3030300017
:1003A00000003E66663E063C60607C6666666600EF
:1003B0001800381818183C00180038181818183089
:1003C0006060666C786C66003818181818180C0095
:1003D0000000367F6B6B630000007C66666666001B
:1003E00000003C6666663C0000007C66667C6060DF
:1003F00000003E66663E060700007C6660606000A6
:1004000000003E603C067C0030307C3030301C0008
:100410000000666666663E0000006666663C180080
:100420000000636B6B7F36000000663C183C660082
:1004300000006666663E063C00007E0C18307E00BA
:100440001C30306030301C001818180018181800C4
:10045000380C0C060C0C380000003B6E000000004D
:1004600000081C3663637F003C66606060663C6029
:100470006600666666663E000C183C667E603C0060
:100480007EC33C063E663E0066003C063E663E007D
:1004900030183C063E663E0018243C063E663E0090
:1004A00000003C6660663C607EC33C667E603C004B
:1004B00066003C667E603C0030183C667E603C0016
:1004C0006600381818183C003C66003818183C00C4
:1004D0003018003818183C0066003C667E666600DE
:1004E00018243C667E6666000C187E607C607E0088
:1004F00000007E1B7FD87E001F3C6C7F6C6C6F0001
:100500003C66003C66663C000066003C66663C005B
:100510003018003C66663C003C66006666663E003D
:100520003018006666663E0066006666663E063CFB
:10053000663C666666663C006600666666663C000B
:10054000000C1E30301E0C001C36307C30607E00EB
:1005500066663C7E187E18007C666E7C6E6C66005B
:100560000E18183C181870000C183C063E663E0029
:100570000C18003818183C000C18003C66663C004B
:100580000C18006666663E00366C007C6666660087
:10059000366C0066766E6600380C3C6C3C000000E1
:1005A000386C6C6C380000001800183060663C0035
:1005B0000000007E606000000000007E0606000073
:1005C0004042444816234607404244481525470107
:1005D000180018183C3C180000366CD86C36000027
:1005E000006C361B366C0000228822882288228804
:1005F00055AA55AA55AA55AABBEEBBEEBBEEBBEE5B
:100600001818181818181818181818F8F8181818AA
:1006100018F8F81818F8F818666666E6E66666666A
:10062000000000FEFE66666600F8F81818F8F81874
:1006300066E6E60606E6E66666666666666666661A
:1006400000FEFE0606E6E66666E6E60606FEFE0036
:10065000666666FEFE00000010F8F81818F8F8004C
:10066000000000F8F81818181818181F1F000000CC
:10067000181818FFFF000000000000FFFF181818EE
:100680001818181F1F181818000000FFFF0000009E
:10069000181818FFFF181818181F1F18181F1F18F0
:1006A000666666676766666666676760607F7F0026
:1006B000007F7F606067676666E7E70000FFFF0016
:1006C00000FFFF0000E7E7666667676060676766D0
:1006D00000FFFF0000FFFF0066E7E70000E7E766B6
:1006E00018FFFF0000FFFF00666666FFFF000000C6
:1006F00000FFFF0000FFFF18000000FFFF666666B6
:100700006666667F7F000000181F1F18181F1F00F5
:10071000001F1F18181F1F180000007F7F666666E5
:10072000666666E7E766666618FFFF0000FFFF186B
:10073000181818F8F80000000000001F1F181818FB
:10074000FFFFFFFFFFFFFFFF00000000FFFFFFFFB5
:10075000F0F0F0F0F0F0F0F00F0F0F0F0F0F0F0FA1
:10076000FFFFFFFF0000000000003B6E646E3B00D7
:100770003C66666C66636E607E66606060606000AA
:10078000007F3636363636007E60301830607E00A8
:1007900000003E786C6C3800000066666E7B60601E
:1007A00000007E1818180C003C183C66663C183C8B
:1007B0003C66667E66663C003E6363636336770034
:1007C0003C30183C66663C000000366F6B7B3600A0
:1007D00000033E667E667CC000003E603C603E00DA
:1007E0003C66666666666600007E007E007E0000EF
:1007F00018187E1818007E0030180C1830007E0083
:100800000C1830180C007E000E1B1B181818181836
:100810001818181818D8D8700018007E0018000092
:10082000003B6E003B6E00001C36361C00000000D2
:100830000000001818000000000000001800000070
:100840000F0C0CCC6C3C1C0C3C36363636000000D1
:10085000380C18303C00000000003C3C3C3C0000E0
:10086000000000000000000011241FBECFEFD8E000
:10087000DEBFCDBF11E0A0E0B1E0EAECF7E102C0DD
:1008800005900D92A431B107D9F721E0A4E1B1E0C0
:1008900001C01D92A731B207E1F70E944D0A0C94E6
:1008A000E30B0C9400001F920F920FB60F921124CD
:1008B0002F938F939F938091840090918500833232
:1008C000910581F08332934029F48091B0008F7DAF
:1008D0008093B0009F918F912F910F900FBE0F903A
:1008E0001F9018958091B00080628093B0009F9116
:1008F0008F912F910F900FBE0F901F901895559AC2
:10090000229A539A509A5A9A5C9A28982998529AFD
:10091000549A209A219A87B18F6387B98AB1806CE3
:100920008AB983E883BD88EA87BD8093B30081E1FB
:1009300088BD81E284BD99E095BD25E233E0309326
:1009400089002093880025E030E030938B002093CD
:100950008A00A0E8B0E083E08C93E1E8F0E088E171
:1009600080838C9180628C9380818760808388E211
:100970008093B40081E08093B0009093B1005B9AC3
:1009800016BC10928500109284008FEE8093B20006
:10099000EEE6F0E0808181608083789413BC089556
:1009A0002F923F924F925F926F927F928F929F927F
:1009B000AF92BF92CF92DF92EF92FF920F931F936D
:1009C000CF93DF93CDB7DEB728970FB6F894DEBF8D
:1009D0000FBECDBF80E090E0AC01405C5F4F289837
:1009E000299828B1207C28B928B1382F3F73232BB0
:1009F00028B92BB12F732BB92BB1382F307C232B77
:100A00002BB95A985C985C9A5A9A289A299828B1D6
:100A1000207C28B928B1392F3F73232B28B92BB15B
:100A20002F732BB92BB1392F307C232B2BB95A982C
:100A30005C985C9A5A9A2898299A28B1207C28B9FF
:100A400028B128B92BB12F732BB92BB12BB95A98D8
:100A50005C985C9A5A9A01968417950709F0BFCF63
:100A6000811510E6910709F0B7CF2BEF39E686E242
:100A7000215030408040E1F700C0000080E090E06D
:100A8000AC01405C5F4F2898299828B1207C28B998
:100A900028B1382F3F73232B28B92BB12F732BB9D3
:100AA0002BB1382F307C232B2BB95A985C985C9A49
:100AB0005A9A289A299828B1207C28B928B1392F28
:100AC0003F73232B28B92BB12F732BB92BB1392F9F
:100AD000307C232B2BB95A985C985C9A5A9A2898A8
:100AE000299A28B1207C28B928B12F6328B92BB1C5
:100AF0002F732BB92BB1206C2BB95A985C985C9A48
:100B00005A9A01968417950709F0BDCF8115E0E642
:100B10009E0709F0B5CF60E070E080E090E0E5E589
:100B2000FE2FFF733E2F307CAC01405C5F4F289856
:100B3000299828B1207C28B928B1E82FEF732E2BF3
:100B400028B92BB12F732BB92BB1E82FE07C2E2BBA
:100B50002BB95A985C985C9A5A9A289A299828B185
:100B6000207C28B928B1E92FEF732E2B28B92BB19F
:100B70002F732BB92BB1E92FE07C2E2B2BB95A9870
:100B80005C985C9A5A9A2898299A28B1207C28B9AE
:100B900028B12F2B28B92BB12F732BB92BB1232BB5
:100BA0002BB95A985C985C9A5A9A019684179507C3
:100BB00009F0BDCF6F5F7F4F8115904641F060FF18
:100BC00003C0EAEACA01ACCFE5E5CA01A9CF109299
:100BD0000001109216011092150180E020E040E023
:100BE00050E0BFE3AFE2352F317030931401622F34
:100BF00070E0762F6627770FFB01E80FF11DCF011C
:100C0000FA01FF27EE0FFF1FEE0FFF1FEE0FFF1F72
:100C1000E859FF4FBC017E5F02C03091140124915E
:100C2000311120952898299838B1307C38B938B1DD
:100C3000182F1F73312B38B93BB13F733BB93BB110
:100C4000182F107C312B3BB95A985C985C9A5A9AB1
:100C5000289A299838B1307C38B938B1192F1F73C8
:100C6000312B38B93BB13F733BB93BB1192F107CE5
:100C7000312B3BB95A985C985C9A5A9A2898299AD1
:100C800038B1307C38B938B1122F1F73312B38B9D5
:100C90003BB13F733BB93BB1207C232B2BB95A9816
:100CA0005C985C9A5A9A805C9F4F3196861797079A
:100CB00009F0B3CF809116018F5F809316018034C5
:100CC00009F4B3C080911501803359F04F5F5F4F35
:100CD00041158CE0580799F020911501809116017B
:100CE00082CF809100018111A8C0B0931601A0931A
:100CF00015014F5F5F4F41158CE0580769F79BEF77
:100D0000E9E6F6E29150E040F040E1F700C0000073
:100D100081E08093000110921601109215014CE2BF
:100D200051E080E020E090E011E0682F392F31277A
:100D300030931401A2E0B1E0E0E2822F90E0982F1E
:100D40008827990F860F911DF0E0EE0FFF1FEE0F21
:100D5000FF1FEE0FFF1FE859FF4FBC017E5F02C06F
:100D6000309114012491311120952898299838B197
:100D7000307C38B938B1082F0F73302B38B93BB1FC
:100D80003F733BB93BB1082F007C302B3BB95A98DD
:100D90005C985C9A5A9A289A299838B1307C38B96C
:100DA00038B1092F0F73302B38B93BB13F733BB9C2
:100DB0003BB1092F007C302B3BB95A985C985C9A68
:100DC0005A9A2898299A38B1307C38B938B1022F0C
:100DD0000F73302B38B93BB13F733BB93BB1207C2B
:100DE000232B2BB95A985C985C9A5A9A805C9F4F37
:100DF00031968617970709F0B3CF809116018F5F60
:100E000080931601803409F4F4C080911501803379
:100E100009F4D7C0ED91EE2309F4E0C0209115014B
:100E2000609116013091140188CF109216018091C3
:100E300015018F5F8093150147CF80E090E02898DF
:100E4000299828B1207C28B928B1382F3F73232B4B
:100E500028B92BB12F732BB96BB1282F207C622BB3
:100E60006BB95A985C985C9A5A9A289A299868B1F2
:100E7000607C68B968B1FC01FE5F7F2F7F73672BD0
:100E800068B96BB16F736BB96BB17F2F707C672BD7
:100E90006BB95A985C985C9A5A9A2898299A5A9AE7
:100EA0005C9867B1607C67B96AB16F736AB976B1F3
:100EB00069B17F73E7B1EF63E7B9EAB1E06CEAB912
:100EC0005C9A28982998E8B1E07CE8B9E8B13E2B13
:100ED00038B93BB13F733BB93BB1232B2BB95A987F
:100EE0005C985C9A5A9A289A299828B1207C28B94B
:100EF00028B1392F3F73232B28B92BB12F732BB96E
:100F00002BB1392F307C232B2BB95A985C985C9AE3
:100F10005A9A2898299A28B1207C28B928B1272BD9
:100F200028B92BB12F732BB93BB1262F207C232B53
:100F30002BB95A985C985C9A5A9A019681152EE5BD
:100F4000920709F07CCF2898299828B1207C28B9ED
:100F500028B1382F3F73232B28B92BB12F732BB90E
:100F60002BB1382F307C232B2BB95A985C985C9A84
:100F70005A9A289A299828B1207C28B928B1392F63
:100F80003F73232B28B92BB12F732BB95E9A5A9834
:100F90005C985C9A5A9A2898299A28B1207C28B99A
:100FA00028B128B92BB12F732BB92BB12BB95A9873
:100FB0005C985C9A5A9A0196811530E6930719F667
:100FC00096CE8091000181111CC09FE39093160181
:100FD000EFE2E0931501ED91E11120CF415051096D
:100FE00009F4D7C090911401209115016091160168
:100FF0009DCE10921601809115018F5F809315018F
:1010000006CF80E090E02898299828B1207C28B964
:1010100028B1382F3F73232B28B92BB12F732BB94D
:101020006BB1282F207C622B6BB95A985C985C9A24
:101030005A9A289A299868B1607C68B968B1FC010D
:10104000FE5F7F2F7F73672B68B96BB16F736BB9CE
:101050006BB17F2F707C672B6BB95A985C985C9A48
:101060005A9A2898299A5A9A5C9867B1607C67B90D
:101070006AB16F736AB976B169B17F73E7B1EF6333
:10108000E7B9EAB1E06CEAB95C9A28982998E8B126
:10109000E07CE8B9E8B13E2B38B93BB13F733BB9CE
:1010A0003BB1232B2BB95A985C985C9A5A9A289A90
:1010B000299828B1207C28B928B1392F3F73232BD8
:1010C00028B92BB12F732BB92BB1392F307C232B9F
:1010D0002BB95A985C985C9A5A9A2898299A28B100
:1010E000207C28B938B1272F232B28B92BB12F7397
:1010F0002BB93BB1262F207C232B2BB95A985C9817
:101100005C9A5A9A019681152EE5920709F07BCFD9
:101110002898299828B1207C28B928B1382F3F7306
:10112000232B28B92BB12F732BB92BB1382F307C3F
:10113000232B2BB95A985C985C9A5A9A289A29982A
:1011400028B1207C28B928B1392F3F73232B28B927
:101150002BB12F732BB95E9A5A985C985C9A5A9A65
:101160002898299A28B1207C28B928B128B92BB110
:101170002F732BB92BB12BB95A985C985C9A5A9A59
:101180000196811530E6930719F68FE280931501D9
:1011900041CE589A1C821B821E821D8260E070E044
:1011A00080E493EC4AEA242EAA24A394B12CBA82B8
:1011B000A9829B01AC010E94760B2B013C01ED80C2
:1011C000FE80C12CD12C860187E090E098878F8328
:1011D000312C1DC020E030E046E756E4C501B401E3
:1011E0000E94BF0A87FF0AC089819A810F8002C0CE
:1011F000880F991F0A94E2F78221382AEF81F88537
:101200003197F887EF830F5F1F4F319639F1B8019F
:1012100080E090E00E94C40A20E030E040E853E41F
:101220000E94520A9B01AC010E94760BA30192011D
:101230000E94530A4B015C0120E034E04DE057E48A
:101240000E94BF0A87FDC6CF89819A810F8002C0A4
:10125000880F991F0A94E2F7382AD0CF2898299846
:1012600088B1807C88B988B19E2D9F73892B88B9FD
:101270008BB18F738BB98BB19E2D907C892B8BB9E1
:101280005A985C985C9A5A9A289A299888B1807CD6
:1012900088B988B19F2D9F73892B88B98BB18F73C3
:1012A0008BB98BB19F2D907C892B8BB95A985C9808
:1012B0005C9A5A9A2898299A88B1807C88B988B112
:1012C000932D9F73892B88B98BB18F738BB99BB189
:1012D000832D807C382E392A3BB85A985C985C9ACA
:1012E0005A9A38E0C30ED11C8FEFE81AF80AC114DD
:1012F00092E0D90609F067CFED81FE81E05CFF4FF7
:10130000FE83ED832B813C812F5F3F4F3C832B83FA
:10131000E115F046B1F02B813C81B90180E090E00D
:101320000E94C40A20E030E040E453E40E94520AE4
:101330003B8130FF03C035E5232E3BCF2AEA222E26
:1013400038CFB4E120E030E0F901E05CFF4F2898AD
:10135000299888B1807C88B988B1722F7F73872BD8
:1013600088B98BB18F738BB98BB1622F607C862B60
:101370008BB95A985C985C9A5A9A289A299888B19D
:10138000807C88B988B1532F5F73852B88B98BB166
:101390008F738BB98BB1432F407C842B8BB95A98B8
:1013A0005C985C9A5A9A2898299A5A9A5C9887B1BC
:1013B000807C87B98AB18F738AB986B199B1A7B198
:1013C000AF63A7B9AAB1A06CAAB95C9A289829986A
:1013D000A8B1A07CA8B9A8B17A2B78B97BB17F73EA
:1013E0007BB97BB1672B6BB95A985C985C9A5A9A17
:1013F000289A299868B1607C68B968B1562B58B9A9
:101400005BB15F735BB95BB1452B4BB95A985C9884
:101410005C9A5A9A2898299A48B1407C48B948B1B0
:10142000582F5F73892F807C852B8095982F9F7311
:10143000942B98B99BB19F739BB99BB1807C892BEE
:101440008BB95A985C985C9A5A9A2F5F3F4F2E1727
:101450003F0709F07CCF211580E6380709F074CFEB
:10146000B15009F06FCF589828960FB6F894DEBFA8
:101470000FBECDBFDF91CF911F910F91FF90EF90E5
:10148000DF90CF90BF90AF909F908F907F906F90A4
:101490005F904F903F902F9008950E947F040E948C
:1014A000D004FDCF5058BB27AA270E946A0A0C948B
:1014B0003C0B0E942E0B38F00E94350B20F039F4C3
:1014C0009F3F19F426F40C942B0B0EF4E095E7FBE8
:1014D0000C94250BE92F0E944D0B58F3BA176207A5
:1014E00073078407950720F079F4A6F50C946F0B29
:1014F0000EF4E0950B2EBA2FA02D0B01B90190012F
:101500000C01CA01A0011124FF27591B99F0593F72
:1015100050F4503E68F11A16F040A22F232F342FBA
:101520004427585FF3CF469537952795A795F04008
:101530005395C9F77EF41F16BA0B620B730B840B1D
:10154000BAF09150A1F0FF0FBB1F661F771F881FD5
:10155000C2F70EC0BA0F621F731F841F48F487952D
:1015600077956795B795F7959E3F08F0B0CF93951F
:10157000880F08F09927EE0F9795879508950E9498
:10158000010B08F481E00895E89409C097FB3EF44C
:1015900090958095709561957F4F8F4F9F4F9923C0
:1015A000A9F0F92F96E9BB279395F695879577953E
:1015B0006795B795F111F8CFFAF4BB0F11F460FFFE
:1015C0001BC06F5F7F4F8F4F9F4F16C0882311F056
:1015D00096E911C0772321F09EE8872F762F05C06A
:1015E000662371F096E8862F70E060E02AF09A9505
:1015F000660F771F881FDAF7880F9695879597F9FA
:101600000895990F0008550FAA0BE0E8FEEF161693
:101610001706E807F907C0F012161306E407F507E6
:1016200098F0621B730B840B950B39F40A2661F05A
:10163000232B242B252B21F408950A2609F4A140FD
:10164000A6958FEF811D811D089597F99F6780E80A
:1016500070E060E008959FEF80EC089500240A9404
:101660001616170618060906089500240A9412167D
:101670001306140605060895092E0394000C11F4B0
:10168000882352F0BB0F40F4BF2B11F460FF04C05D
:101690006F5F7F4F8F4F9F4F089557FD9058440FB6
:1016A000551F59F05F3F71F04795880F97FB991FC1
:1016B00061F09F3F79F0879508951216130614067E
:1016C000551FF2CF4695F1DF08C01616170618060B
:1016D000991FF1CF86957105610508940895E894E6
:1016E000BB2766277727CB0197F908950E94890BBE
:1016F0000C943C0B0E942E0B38F00E94350B20F00E
:10170000952311F00C94250B0C942B0B11240C94A5
:10171000700B0E944D0B70F3959FC1F3950F50E035
:10172000551F629FF001729FBB27F00DB11D639F93
:10173000AA27F00DB11DAA1F649F6627B00DA11D39
:10174000661F829F2227B00DA11D621F739FB00DDF
:10175000A11D621F839FA00D611D221F749F33274F
:10176000A00D611D231F849F600D211D822F762FE8
:101770006A2F11249F5750409AF0F1F088234AF0C5
:10178000EE0FFF1FBB1F661F771F881F9150504031
:10179000A9F79E3F510580F00C94250B0C94700B1B
:1017A0005F3FE4F3983ED4F3869577956795B795B8
:1017B000F795E7959F5FC1F7FE2B880F911D9695D2
:0A17C000879597F90895F894FFCF7C
:1017CA0001204C6F6F6B2041726F756E6420596FE8
:0417DA007521200055
:00000001FF
